{
  "contractName": "Voting",
  "abi": [
    {
      "inputs": [],
      "stateMutability": "nonpayable",
      "type": "constructor"
    },
    {
      "anonymous": false,
      "inputs": [
        {
          "indexed": false,
          "internalType": "uint256",
          "name": "count",
          "type": "uint256"
        }
      ],
      "name": "ChoicesSet",
      "type": "event"
    },
    {
      "anonymous": false,
      "inputs": [
        {
          "indexed": false,
          "internalType": "uint256",
          "name": "endTime",
          "type": "uint256"
        }
      ],
      "name": "ElectionEnded",
      "type": "event"
    },
    {
      "anonymous": false,
      "inputs": [
        {
          "indexed": false,
          "internalType": "uint256",
          "name": "startTime",
          "type": "uint256"
        }
      ],
      "name": "ElectionStarted",
      "type": "event"
    },
    {
      "anonymous": false,
      "inputs": [
        {
          "indexed": false,
          "internalType": "string",
          "name": "title",
          "type": "string"
        }
      ],
      "name": "PollTitleSet",
      "type": "event"
    },
    {
      "anonymous": false,
      "inputs": [
        {
          "indexed": true,
          "internalType": "address",
          "name": "voter",
          "type": "address"
        },
        {
          "indexed": true,
          "internalType": "uint256",
          "name": "choiceIndex",
          "type": "uint256"
        }
      ],
      "name": "VoteCast",
      "type": "event"
    },
    {
      "anonymous": false,
      "inputs": [
        {
          "indexed": true,
          "internalType": "address",
          "name": "voter",
          "type": "address"
        }
      ],
      "name": "WhitelistAdded",
      "type": "event"
    },
    {
      "anonymous": false,
      "inputs": [
        {
          "indexed": true,
          "internalType": "address",
          "name": "voter",
          "type": "address"
        }
      ],
      "name": "WhitelistRemoved",
      "type": "event"
    },
    {
      "anonymous": false,
      "inputs": [
        {
          "indexed": false,
          "internalType": "uint256",
          "name": "count",
          "type": "uint256"
        }
      ],
      "name": "WhitelistSet",
      "type": "event"
    },
    {
      "inputs": [],
      "name": "electionActive",
      "outputs": [
        {
          "internalType": "bool",
          "name": "",
          "type": "bool"
        }
      ],
      "stateMutability": "view",
      "type": "function",
      "constant": true
    },
    {
      "inputs": [],
      "name": "electionEnd",
      "outputs": [
        {
          "internalType": "uint256",
          "name": "",
          "type": "uint256"
        }
      ],
      "stateMutability": "view",
      "type": "function",
      "constant": true
    },
    {
      "inputs": [],
      "name": "electionId",
      "outputs": [
        {
          "internalType": "uint256",
          "name": "",
          "type": "uint256"
        }
      ],
      "stateMutability": "view",
      "type": "function",
      "constant": true
    },
    {
      "inputs": [],
      "name": "electionStart",
      "outputs": [
        {
          "internalType": "uint256",
          "name": "",
          "type": "uint256"
        }
      ],
      "stateMutability": "view",
      "type": "function",
      "constant": true
    },
    {
      "inputs": [
        {
          "internalType": "address",
          "name": "",
          "type": "address"
        }
      ],
      "name": "isWhitelisted",
      "outputs": [
        {
          "internalType": "bool",
          "name": "",
          "type": "bool"
        }
      ],
      "stateMutability": "view",
      "type": "function",
      "constant": true
    },
    {
      "inputs": [
        {
          "internalType": "address",
          "name": "",
          "type": "address"
        }
      ],
      "name": "lastVotedAt",
      "outputs": [
        {
          "internalType": "uint256",
          "name": "",
          "type": "uint256"
        }
      ],
      "stateMutability": "view",
      "type": "function",
      "constant": true
    },
    {
      "inputs": [
        {
          "internalType": "address",
          "name": "",
          "type": "address"
        }
      ],
      "name": "lastVotedChoice",
      "outputs": [
        {
          "internalType": "uint256",
          "name": "",
          "type": "uint256"
        }
      ],
      "stateMutability": "view",
      "type": "function",
      "constant": true
    },
    {
      "inputs": [
        {
          "internalType": "address",
          "name": "",
          "type": "address"
        }
      ],
      "name": "lastVotedElection",
      "outputs": [
        {
          "internalType": "uint256",
          "name": "",
          "type": "uint256"
        }
      ],
      "stateMutability": "view",
      "type": "function",
      "constant": true
    },
    {
      "inputs": [],
      "name": "owner",
      "outputs": [
        {
          "internalType": "address",
          "name": "",
          "type": "address"
        }
      ],
      "stateMutability": "view",
      "type": "function",
      "constant": true
    },
    {
      "inputs": [],
      "name": "pollTitle",
      "outputs": [
        {
          "internalType": "string",
          "name": "",
          "type": "string"
        }
      ],
      "stateMutability": "view",
      "type": "function",
      "constant": true
    },
    {
      "inputs": [
        {
          "internalType": "string",
          "name": "title",
          "type": "string"
        }
      ],
      "name": "setPollTitle",
      "outputs": [],
      "stateMutability": "nonpayable",
      "type": "function"
    },
    {
      "inputs": [
        {
          "internalType": "string[]",
          "name": "labels",
          "type": "string[]"
        }
      ],
      "name": "setChoices",
      "outputs": [],
      "stateMutability": "nonpayable",
      "type": "function"
    },
    {
      "inputs": [
        {
          "internalType": "address[]",
          "name": "voters",
          "type": "address[]"
        }
      ],
      "name": "setWhitelist",
      "outputs": [],
      "stateMutability": "nonpayable",
      "type": "function"
    },
    {
      "inputs": [
        {
          "internalType": "address",
          "name": "voter",
          "type": "address"
        }
      ],
      "name": "addToWhitelist",
      "outputs": [],
      "stateMutability": "nonpayable",
      "type": "function"
    },
    {
      "inputs": [
        {
          "internalType": "address",
          "name": "voter",
          "type": "address"
        }
      ],
      "name": "removeFromWhitelist",
      "outputs": [],
      "stateMutability": "nonpayable",
      "type": "function"
    },
    {
      "inputs": [],
      "name": "startElection",
      "outputs": [],
      "stateMutability": "nonpayable",
      "type": "function"
    },
    {
      "inputs": [],
      "name": "endElection",
      "outputs": [],
      "stateMutability": "nonpayable",
      "type": "function"
    },
    {
      "inputs": [
        {
          "internalType": "uint256",
          "name": "choiceIndex",
          "type": "uint256"
        }
      ],
      "name": "vote",
      "outputs": [],
      "stateMutability": "nonpayable",
      "type": "function"
    },
    {
      "inputs": [],
      "name": "choiceCount",
      "outputs": [
        {
          "internalType": "uint256",
          "name": "",
          "type": "uint256"
        }
      ],
      "stateMutability": "view",
      "type": "function",
      "constant": true
    },
    {
      "inputs": [
        {
          "internalType": "uint256",
          "name": "choiceIndex",
          "type": "uint256"
        }
      ],
      "name": "choiceInfo",
      "outputs": [
        {
          "internalType": "string",
          "name": "label",
          "type": "string"
        },
        {
          "internalType": "uint256",
          "name": "votes",
          "type": "uint256"
        }
      ],
      "stateMutability": "view",
      "type": "function",
      "constant": true
    },
    {
      "inputs": [],
      "name": "whitelistCount",
      "outputs": [
        {
          "internalType": "uint256",
          "name": "",
          "type": "uint256"
        }
      ],
      "stateMutability": "view",
      "type": "function",
      "constant": true
    },
    {
      "inputs": [
        {
          "internalType": "uint256",
          "name": "index",
          "type": "uint256"
        }
      ],
      "name": "whitelistEntry",
      "outputs": [
        {
          "internalType": "address",
          "name": "voter",
          "type": "address"
        },
        {
          "internalType": "bool",
          "name": "active",
          "type": "bool"
        }
      ],
      "stateMutability": "view",
      "type": "function",
      "constant": true
    },
    {
      "inputs": [
        {
          "internalType": "address",
          "name": "voter",
          "type": "address"
        }
      ],
      "name": "voterStatus",
      "outputs": [
        {
          "internalType": "bool",
          "name": "whitelisted",
          "type": "bool"
        },
        {
          "internalType": "bool",
          "name": "voted",
          "type": "bool"
        },
        {
          "internalType": "uint256",
          "name": "choiceIndex",
          "type": "uint256"
        },
        {
          "internalType": "uint256",
          "name": "votedAt",
          "type": "uint256"
        }
      ],
      "stateMutability": "view",
      "type": "function",
      "constant": true
    },
    {
      "inputs": [],
      "name": "getWinner",
      "outputs": [
        {
          "internalType": "uint256",
          "name": "winnerIndex",
          "type": "uint256"
        },
        {
          "internalType": "string",
          "name": "label",
          "type": "string"
        },
        {
          "internalType": "uint256",
          "name": "votes",
          "type": "uint256"
        },
        {
          "internalType": "bool",
          "name": "hasTie",
          "type": "bool"
        },
        {
          "internalType": "bool",
          "name": "hasWinner",
          "type": "bool"
        }
      ],
      "stateMutability": "view",
      "type": "function",
      "constant": true
    }
  ],
  "bytecode": "0x608060405234801561001057600080fd5b50336000806101000a81548173ffffffffffffffffffffffffffffffffffffffff021916908373ffffffffffffffffffffffffffffffffffffffff160217905550613079806100606000396000f3fe608060405234801561001057600080fd5b50600436106101585760003560e01c80638ab1d681116100c3578063ce7ea1611161007c578063ce7ea161146103c0578063e43252d7146103de578063e99670b5146103fa578063f211121b1461042a578063f2624b5d14610446578063f42176481461046457610158565b80638ab1d681146102f75780638da5cb5b146103135780638e7ea5b214610331578063c1211c8614610353578063c4614c0714610371578063c59daa5a1461038f57610158565b8063576cc4f211610115578063576cc4f21461024557806359f784681461027857806362d73eb81461028257806372ca2c8a1461028c5780637ed628bb146102bd57806381adf1ae146102db57610158565b80630121b93f1461015d578063051364d4146101795780630ee012e614610197578063240815b7146101c75780633af32abf146101e55780634382d0c214610215575b600080fd5b610177600480360381019061017291906120bb565b610480565b005b610181610777565b60405161018e91906120f7565b60405180910390f35b6101b160048036038101906101ac9190612170565b61077d565b6040516101be91906120f7565b60405180910390f35b6101cf610795565b6040516101dc91906120f7565b60405180910390f35b6101ff60048036038101906101fa9190612170565b6107a2565b60405161020c91906121b8565b60405180910390f35b61022f600480360381019061022a9190612170565b6107c2565b60405161023c91906120f7565b60405180910390f35b61025f600480360381019061025a9190612170565b6107da565b60405161026f94939291906121d3565b60405180910390f35b610280610920565b005b61028a610a59565b005b6102a660048036038101906102a191906120bb565b610c50565b6040516102b4929190612227565b60405180910390f35b6102c5610d35565b6040516102d291906121b8565b60405180910390f35b6102f560048036038101906102f091906122b5565b610d48565b005b610311600480360381019061030c9190612170565b61100d565b005b61031b611215565b6040516103289190612302565b60405180910390f35b610339611239565b60405161034a9594939291906123ad565b60405180910390f35b61035b611477565b60405161036891906120f7565b60405180910390f35b61037961147d565b6040516103869190612407565b60405180910390f35b6103a960048036038101906103a491906120bb565b61150b565b6040516103b7929190612429565b60405180910390f35b6103c8611637565b6040516103d591906120f7565b60405180910390f35b6103f860048036038101906103f39190612170565b61163d565b005b610414600480360381019061040f9190612170565b6118dd565b60405161042191906120f7565b60405180910390f35b610444600480360381019061043f91906124af565b6118f5565b005b61044e611a22565b60405161045b91906120f7565b60405180910390f35b61047e60048036038101906104799190612552565b611a2f565b005b600060149054906101000a900460ff166104cf576040517f08c379a00000000000000000000000000000000000000000000000000000000081526004016104c6906125eb565b60405180910390fd5b6005805490508110610516576040517f08c379a000000000000000000000000000000000000000000000000000000000815260040161050d90612657565b60405180910390fd5b600760003373ffffffffffffffffffffffffffffffffffffffff1673ffffffffffffffffffffffffffffffffffffffff16815260200190815260200160002060009054906101000a900460ff166105a2576040517f08c379a0000000000000000000000000000000000000000000000000000000008152600401610599906126c3565b60405180910390fd5b600454600860003373ffffffffffffffffffffffffffffffffffffffff1673ffffffffffffffffffffffffffffffffffffffff1681526020019081526020016000205410610625576040517f08c379a000000000000000000000000000000000000000000000000000000000815260040161061c9061272f565b60405180910390fd5b600454600860003373ffffffffffffffffffffffffffffffffffffffff1673ffffffffffffffffffffffffffffffffffffffff1681526020019081526020016000208190555080600960003373ffffffffffffffffffffffffffffffffffffffff1673ffffffffffffffffffffffffffffffffffffffff1681526020019081526020016000208190555042600a60003373ffffffffffffffffffffffffffffffffffffffff1673ffffffffffffffffffffffffffffffffffffffff168152602001908152602001600020819055506001600582815481106107095761070861274f565b5b9060005260206000209060020201600101600082825461072991906127ad565b92505081905550803373ffffffffffffffffffffffffffffffffffffffff167fa36cc2bebb74db33e9f88110a07ef56e1b31b24b4c4f51b54b1664266e29f45b60405160405180910390a350565b60045481565b60086020528060005260406000206000915090505481565b6000600580549050905090565b60076020528060005260406000206000915054906101000a900460ff1681565b600a6020528060005260406000206000915090505481565b6000806000806000600454600860008873ffffffffffffffffffffffffffffffffffffffff1673ffffffffffffffffffffffffffffffffffffffff16815260200190815260200160002054149050600760008773ffffffffffffffffffffffffffffffffffffffff1673ffffffffffffffffffffffffffffffffffffffff16815260200190815260200160002060009054906101000a900460ff1681826108825760006108c3565b600960008973ffffffffffffffffffffffffffffffffffffffff1673ffffffffffffffffffffffffffffffffffffffff168152602001908152602001600020545b836108cf576000610910565b600a60008a73ffffffffffffffffffffffffffffffffffffffff1673ffffffffffffffffffffffffffffffffffffffff168152602001908152602001600020545b9450945094509450509193509193565b60008054906101000a900473ffffffffffffffffffffffffffffffffffffffff1673ffffffffffffffffffffffffffffffffffffffff163373ffffffffffffffffffffffffffffffffffffffff16146109ae576040517f08c379a00000000000000000000000000000000000000000000000000000000081526004016109a59061282d565b60405180910390fd5b600060149054906101000a900460ff166109fd576040517f08c379a00000000000000000000000000000000000000000000000000000000081526004016109f490612899565b60405180910390fd5b60008060146101000a81548160ff021916908315150217905550426002819055507f562cd572b2ba3b666cd989fc4ca98419ec81e75f04528df9d9d76fdb7807ee71600254604051610a4f91906120f7565b60405180910390a1565b60008054906101000a900473ffffffffffffffffffffffffffffffffffffffff1673ffffffffffffffffffffffffffffffffffffffff163373ffffffffffffffffffffffffffffffffffffffff1614610ae7576040517f08c379a0000000000000000000000000000000000000000000000000000000008152600401610ade9061282d565b60405180910390fd5b600060149054906101000a900460ff1615610b37576040517f08c379a0000000000000000000000000000000000000000000000000000000008152600401610b2e90612905565b60405180910390fd5b600060058054905011610b7f576040517f08c379a0000000000000000000000000000000000000000000000000000000008152600401610b7690612971565b60405180910390fd5b6000610b89611d64565b11610bc9576040517f08c379a0000000000000000000000000000000000000000000000000000000008152600401610bc0906129dd565b60405180910390fd5b610bd1611e36565b600160046000828254610be491906127ad565b925050819055506001600060146101000a81548160ff0219169083151502179055504260018190555060006002819055507f159eee87222a0489c529f2153c26ad65d718f2cc33ebaa8d399d1dd5b39facaa600154604051610c4691906120f7565b60405180910390a1565b6000806006805490508310610c9a576040517f08c379a0000000000000000000000000000000000000000000000000000000008152600401610c9190612a49565b60405180910390fd5b600060068481548110610cb057610caf61274f565b5b9060005260206000200160009054906101000a900473ffffffffffffffffffffffffffffffffffffffff16905080600760008373ffffffffffffffffffffffffffffffffffffffff1673ffffffffffffffffffffffffffffffffffffffff16815260200190815260200160002060009054906101000a900460ff169250925050915091565b600060149054906101000a900460ff1681565b60008054906101000a900473ffffffffffffffffffffffffffffffffffffffff1673ffffffffffffffffffffffffffffffffffffffff163373ffffffffffffffffffffffffffffffffffffffff1614610dd6576040517f08c379a0000000000000000000000000000000000000000000000000000000008152600401610dcd9061282d565b60405180910390fd5b600060149054906101000a900460ff1615610e26576040517f08c379a0000000000000000000000000000000000000000000000000000000008152600401610e1d90612ab5565b60405180910390fd5b60008282905011610e6c576040517f08c379a0000000000000000000000000000000000000000000000000000000008152600401610e6390612971565b60405180910390fd5b60056000610e7a9190611faa565b60005b82829050811015610fce576000838383818110610e9d57610e9c61274f565b5b9050602002810190610eaf9190612ae4565b905011610ef1576040517f08c379a0000000000000000000000000000000000000000000000000000000008152600401610ee890612b93565b60405180910390fd5b60056040518060400160405280858585818110610f1157610f1061274f565b5b9050602002810190610f239190612ae4565b8080601f016020809104026020016040519081016040528093929190818152602001838380828437600081840152601f19601f820116905080830192505050505050508152602001600081525090806001815401808255809150506001900390600052602060002090600202016000909190919091506000820151816000019081610fae9190612dee565b506020820151816001015550508080610fc690612ec0565b915050610e7d565b507f47ddf4229cbc3a16b02a3f57c4afe764e3b73986214022465a042cbf7ab0fc848282905060405161100191906120f7565b60405180910390a15050565b60008054906101000a900473ffffffffffffffffffffffffffffffffffffffff1673ffffffffffffffffffffffffffffffffffffffff163373ffffffffffffffffffffffffffffffffffffffff161461109b576040517f08c379a00000000000000000000000000000000000000000000000000000000081526004016110929061282d565b60405180910390fd5b600060149054906101000a900460ff16156110eb576040517f08c379a00000000000000000000000000000000000000000000000000000000081526004016110e290612ab5565b60405180910390fd5b600760008273ffffffffffffffffffffffffffffffffffffffff1673ffffffffffffffffffffffffffffffffffffffff16815260200190815260200160002060009054906101000a900460ff16611177576040517f08c379a000000000000000000000000000000000000000000000000000000000815260040161116e906126c3565b60405180910390fd5b6000600760008373ffffffffffffffffffffffffffffffffffffffff1673ffffffffffffffffffffffffffffffffffffffff16815260200190815260200160002060006101000a81548160ff0219169083151502179055508073ffffffffffffffffffffffffffffffffffffffff167fde8cf212af7ce38b2840785a2768d97ff2dbf3c21b516961cec0061e134c2a1e60405160405180910390a250565b60008054906101000a900473ffffffffffffffffffffffffffffffffffffffff1681565b60006060600080600080600090506000806000805b600580549050811015611379576000600582815481106112715761127061274f565b5b906000526020600020906002020160405180604001604052908160008201805461129a90612c11565b80601f01602080910402602001604051908101604052809291908181526020018280546112c690612c11565b80156113135780601f106112e857610100808354040283529160200191611313565b820191906000526020600020905b8154815290600101906020018083116112f657829003601f168201915b5050505050815260200160018201548152505090508215806113385750858160200151115b1561135457806020015195508194506000935060019250611365565b8581602001510361136457600193505b5b50808061137190612ec0565b91505061124e565b50806113ab57600080600080604051806020016040528060008152509291909850985098509850985050505050611470565b82600584815481106113c0576113bf61274f565b5b9060005260206000209060020201600001858460018380546113e190612c11565b80601f016020809104026020016040519081016040528092919081815260200182805461140d90612c11565b801561145a5780601f1061142f5761010080835404028352916020019161145a565b820191906000526020600020905b81548152906001019060200180831161143d57829003601f168201915b5050505050935098509850985098509850505050505b9091929394565b60015481565b6003805461148a90612c11565b80601f01602080910402602001604051908101604052809291908181526020018280546114b690612c11565b80156115035780601f106114d857610100808354040283529160200191611503565b820191906000526020600020905b8154815290600101906020018083116114e657829003601f168201915b505050505081565b606060006005805490508310611556576040517f08c379a000000000000000000000000000000000000000000000000000000000815260040161154d90612657565b60405180910390fd5b60006005848154811061156c5761156b61274f565b5b906000526020600020906002020160405180604001604052908160008201805461159590612c11565b80601f01602080910402602001604051908101604052809291908181526020018280546115c190612c11565b801561160e5780601f106115e35761010080835404028352916020019161160e565b820191906000526020600020905b8154815290600101906020018083116115f157829003601f168201915b505050505081526020016001820154815250509050806000015181602001519250925050915091565b60025481565b60008054906101000a900473ffffffffffffffffffffffffffffffffffffffff1673ffffffffffffffffffffffffffffffffffffffff163373ffffffffffffffffffffffffffffffffffffffff16146116cb576040517f08c379a00000000000000000000000000000000000000000000000000000000081526004016116c29061282d565b60405180910390fd5b600060149054906101000a900460ff161561171b576040517f08c379a000000000000000000000000000000000000000000000000000000000815260040161171290612ab5565b60405180910390fd5b600073ffffffffffffffffffffffffffffffffffffffff168173ffffffffffffffffffffffffffffffffffffffff160361178a576040517f08c379a000000000000000000000000000000000000000000000000000000000815260040161178190612a49565b60405180910390fd5b600760008273ffffffffffffffffffffffffffffffffffffffff1673ffffffffffffffffffffffffffffffffffffffff16815260200190815260200160002060009054906101000a900460ff166118da576001600760008373ffffffffffffffffffffffffffffffffffffffff1673ffffffffffffffffffffffffffffffffffffffff16815260200190815260200160002060006101000a81548160ff0219169083151502179055506006819080600181540180825580915050600190039060005260206000200160009091909190916101000a81548173ffffffffffffffffffffffffffffffffffffffff021916908373ffffffffffffffffffffffffffffffffffffffff1602179055508073ffffffffffffffffffffffffffffffffffffffff167f4790a4adb426ca2345bb5108f6e454eae852a7bf687544cd66a7270dff3a41d660405160405180910390a25b50565b60096020528060005260406000206000915090505481565b60008054906101000a900473ffffffffffffffffffffffffffffffffffffffff1673ffffffffffffffffffffffffffffffffffffffff163373ffffffffffffffffffffffffffffffffffffffff1614611983576040517f08c379a000000000000000000000000000000000000000000000000000000000815260040161197a9061282d565b60405180910390fd5b600060149054906101000a900460ff16156119d3576040517f08c379a00000000000000000000000000000000000000000000000000000000081526004016119ca90612ab5565b60405180910390fd5b8181600391826119e4929190612f13565b507f4bde17b0bf78cd4270702de070f0d01780f50ee8b00449b600ad91331da092488282604051611a1692919061301f565b60405180910390a15050565b6000600680549050905090565b60008054906101000a900473ffffffffffffffffffffffffffffffffffffffff1673ffffffffffffffffffffffffffffffffffffffff163373ffffffffffffffffffffffffffffffffffffffff1614611abd576040517f08c379a0000000000000000000000000000000000000000000000000000000008152600401611ab49061282d565b60405180910390fd5b600060149054906101000a900460ff1615611b0d576040517f08c379a0000000000000000000000000000000000000000000000000000000008152600401611b0490612ab5565b60405180910390fd5b60008282905011611b53576040517f08c379a0000000000000000000000000000000000000000000000000000000008152600401611b4a906129dd565b60405180910390fd5b611b5b611e87565b60005b82829050811015611d25576000838383818110611b7e57611b7d61274f565b5b9050602002016020810190611b939190612170565b9050600073ffffffffffffffffffffffffffffffffffffffff168173ffffffffffffffffffffffffffffffffffffffff1603611c04576040517f08c379a0000000000000000000000000000000000000000000000000000000008152600401611bfb90612a49565b60405180910390fd5b600760008273ffffffffffffffffffffffffffffffffffffffff1673ffffffffffffffffffffffffffffffffffffffff16815260200190815260200160002060009054906101000a900460ff16611d11576001600760008373ffffffffffffffffffffffffffffffffffffffff1673ffffffffffffffffffffffffffffffffffffffff16815260200190815260200160002060006101000a81548160ff0219169083151502179055506006819080600181540180825580915050600190039060005260206000200160009091909190916101000a81548173ffffffffffffffffffffffffffffffffffffffff021916908373ffffffffffffffffffffffffffffffffffffffff1602179055505b508080611d1d90612ec0565b915050611b5e565b507fc59b8040a547b5f7681c96b664a3beddd17b130449d012c27c854cb4672c3eee82829050604051611d5891906120f7565b60405180910390a15050565b6000806000905060005b600680549050811015611e2e576007600060068381548110611d9357611d9261274f565b5b9060005260206000200160009054906101000a900473ffffffffffffffffffffffffffffffffffffffff1673ffffffffffffffffffffffffffffffffffffffff1673ffffffffffffffffffffffffffffffffffffffff16815260200190815260200160002060009054906101000a900460ff1615611e1b57600182611e1891906127ad565b91505b8080611e2690612ec0565b915050611d6e565b508091505090565b60005b600580549050811015611e8457600060058281548110611e5c57611e5b61274f565b5b9060005260206000209060020201600101819055508080611e7c90612ec0565b915050611e39565b50565b60005b600680549050811015611f9957600060068281548110611ead57611eac61274f565b5b9060005260206000200160009054906101000a900473ffffffffffffffffffffffffffffffffffffffff169050600760008273ffffffffffffffffffffffffffffffffffffffff1673ffffffffffffffffffffffffffffffffffffffff16815260200190815260200160002060009054906101000a900460ff1615611f85576000600760008373ffffffffffffffffffffffffffffffffffffffff1673ffffffffffffffffffffffffffffffffffffffff16815260200190815260200160002060006101000a81548160ff0219169083151502179055505b508080611f9190612ec0565b915050611e8a565b5060066000611fa89190611fce565b565b5080546000825560020290600052602060002090810190611fcb9190611fef565b50565b5080546000825590600052602060002090810190611fec919061201e565b50565b5b8082111561201a5760008082016000612009919061203b565b600182016000905550600201611ff0565b5090565b5b8082111561203757600081600090555060010161201f565b5090565b50805461204790612c11565b6000825580601f106120595750612078565b601f016020900490600052602060002090810190612077919061201e565b5b50565b600080fd5b600080fd5b6000819050919050565b61209881612085565b81146120a357600080fd5b50565b6000813590506120b58161208f565b92915050565b6000602082840312156120d1576120d061207b565b5b60006120df848285016120a6565b91505092915050565b6120f181612085565b82525050565b600060208201905061210c60008301846120e8565b92915050565b600073ffffffffffffffffffffffffffffffffffffffff82169050919050565b600061213d82612112565b9050919050565b61214d81612132565b811461215857600080fd5b50565b60008135905061216a81612144565b92915050565b6000602082840312156121865761218561207b565b5b60006121948482850161215b565b91505092915050565b60008115159050919050565b6121b28161219d565b82525050565b60006020820190506121cd60008301846121a9565b92915050565b60006080820190506121e860008301876121a9565b6121f560208301866121a9565b61220260408301856120e8565b61220f60608301846120e8565b95945050505050565b61222181612132565b82525050565b600060408201905061223c6000830185612218565b61224960208301846121a9565b9392505050565b600080fd5b600080fd5b600080fd5b60008083601f84011261227557612274612250565b5b8235905067ffffffffffffffff81111561229257612291612255565b5b6020830191508360208202830111156122ae576122ad61225a565b5b9250929050565b600080602083850312156122cc576122cb61207b565b5b600083013567ffffffffffffffff8111156122ea576122e9612080565b5b6122f68582860161225f565b92509250509250929050565b60006020820190506123176000830184612218565b92915050565b600081519050919050565b600082825260208201905092915050565b60005b8381101561235757808201518184015260208101905061233c565b60008484015250505050565b6000601f19601f8301169050919050565b600061237f8261231d565b6123898185612328565b9350612399818560208601612339565b6123a281612363565b840191505092915050565b600060a0820190506123c260008301886120e8565b81810360208301526123d48187612374565b90506123e360408301866120e8565b6123f060608301856121a9565b6123fd60808301846121a9565b9695505050505050565b600060208201905081810360008301526124218184612374565b905092915050565b600060408201905081810360008301526124438185612374565b905061245260208301846120e8565b9392505050565b60008083601f84011261246f5761246e612250565b5b8235905067ffffffffffffffff81111561248c5761248b612255565b5b6020830191508360018202830111156124a8576124a761225a565b5b9250929050565b600080602083850312156124c6576124c561207b565b5b600083013567ffffffffffffffff8111156124e4576124e3612080565b5b6124f085828601612459565b92509250509250929050565b60008083601f84011261251257612511612250565b5b8235905067ffffffffffffffff81111561252f5761252e612255565b5b60208301915083602082028301111561254b5761254a61225a565b5b9250929050565b600080602083850312156125695761256861207b565b5b600083013567ffffffffffffffff81111561258757612586612080565b5b612593858286016124fc565b92509250509250929050565b7f456c656374696f6e206e6f742061637469766500000000000000000000000000600082015250565b60006125d5601383612328565b91506125e08261259f565b602082019050919050565b60006020820190508181036000830152612604816125c8565b9050919050565b7f496e76616c69642063686f696365000000000000000000000000000000000000600082015250565b6000612641600e83612328565b915061264c8261260b565b602082019050919050565b6000602082019050818103600083015261267081612634565b9050919050565b7f4e6f742077686974656c69737465640000000000000000000000000000000000600082015250565b60006126ad600f83612328565b91506126b882612677565b602082019050919050565b600060208201905081810360008301526126dc816126a0565b9050919050565b7f416c726561647920766f74656400000000000000000000000000000000000000600082015250565b6000612719600d83612328565b9150612724826126e3565b602082019050919050565b600060208201905081810360008301526127488161270c565b9050919050565b7f4e487b7100000000000000000000000000000000000000000000000000000000600052603260045260246000fd5b7f4e487b7100000000000000000000000000000000000000000000000000000000600052601160045260246000fd5b60006127b882612085565b91506127c383612085565b92508282019050808211156127db576127da61277e565b5b92915050565b7f4f6e6c79206f776e657200000000000000000000000000000000000000000000600082015250565b6000612817600a83612328565b9150612822826127e1565b602082019050919050565b600060208201905081810360008301526128468161280a565b9050919050565b7f456c656374696f6e20616c726561647920656e64656400000000000000000000600082015250565b6000612883601683612328565b915061288e8261284d565b602082019050919050565b600060208201905081810360008301526128b281612876565b9050919050565b7f456c656374696f6e20616c726561647920616374697665000000000000000000600082015250565b60006128ef601783612328565b91506128fa826128b9565b602082019050919050565b6000602082019050818103600083015261291e816128e2565b9050919050565b7f4e6f2063686f6963657300000000000000000000000000000000000000000000600082015250565b600061295b600a83612328565b915061296682612925565b602082019050919050565b6000602082019050818103600083015261298a8161294e565b9050919050565b7f4e6f20766f746572730000000000000000000000000000000000000000000000600082015250565b60006129c7600983612328565b91506129d282612991565b602082019050919050565b600060208201905081810360008301526129f6816129ba565b9050919050565b7f496e76616c696420766f74657200000000000000000000000000000000000000600082015250565b6000612a33600d83612328565b9150612a3e826129fd565b602082019050919050565b60006020820190508181036000830152612a6281612a26565b9050919050565b7f456c656374696f6e206163746976650000000000000000000000000000000000600082015250565b6000612a9f600f83612328565b9150612aaa82612a69565b602082019050919050565b60006020820190508181036000830152612ace81612a92565b9050919050565b600080fd5b600080fd5b600080fd5b60008083356001602003843603038112612b0157612b00612ad5565b5b80840192508235915067ffffffffffffffff821115612b2357612b22612ada565b5b602083019250600182023603831315612b3f57612b3e612adf565b5b509250929050565b7f456d7074792063686f6963650000000000000000000000000000000000000000600082015250565b6000612b7d600c83612328565b9150612b8882612b47565b602082019050919050565b60006020820190508181036000830152612bac81612b70565b9050919050565b7f4e487b7100000000000000000000000000000000000000000000000000000000600052604160045260246000fd5b7f4e487b7100000000000000000000000000000000000000000000000000000000600052602260045260246000fd5b60006002820490506001821680612c2957607f821691505b602082108103612c3c57612c3b612be2565b5b50919050565b60008190508160005260206000209050919050565b60006020601f8301049050919050565b600082821b905092915050565b600060088302612ca47fffffffffffffffffffffffffffffffffffffffffffffffffffffffffffffffff82612c67565b612cae8683612c67565b95508019841693508086168417925050509392505050565b6000819050919050565b6000612ceb612ce6612ce184612085565b612cc6565b612085565b9050919050565b6000819050919050565b612d0583612cd0565b612d19612d1182612cf2565b848454612c74565b825550505050565b600090565b612d2e612d21565b612d39818484612cfc565b505050565b5b81811015612d5d57612d52600082612d26565b600181019050612d3f565b5050565b601f821115612da257612d7381612c42565b612d7c84612c57565b81016020851015612d8b578190505b612d9f612d9785612c57565b830182612d3e565b50505b505050565b600082821c905092915050565b6000612dc560001984600802612da7565b1980831691505092915050565b6000612dde8383612db4565b9150826002028217905092915050565b612df78261231d565b67ffffffffffffffff811115612e1057612e0f612bb3565b5b612e1a8254612c11565b612e25828285612d61565b600060209050601f831160018114612e585760008415612e46578287015190505b612e508582612dd2565b865550612eb8565b601f198416612e6686612c42565b60005b82811015612e8e57848901518255600182019150602085019450602081019050612e69565b86831015612eab5784890151612ea7601f891682612db4565b8355505b6001600288020188555050505b505050505050565b6000612ecb82612085565b91507fffffffffffffffffffffffffffffffffffffffffffffffffffffffffffffffff8203612efd57612efc61277e565b5b600182019050919050565b600082905092915050565b612f1d8383612f08565b67ffffffffffffffff811115612f3657612f35612bb3565b5b612f408254612c11565b612f4b828285612d61565b6000601f831160018114612f7a5760008415612f68578287013590505b612f728582612dd2565b865550612fda565b601f198416612f8886612c42565b60005b82811015612fb057848901358255600182019150602085019450602081019050612f8b565b86831015612fcd5784890135612fc9601f891682612db4565b8355505b6001600288020188555050505b50505050505050565b82818337600083830152505050565b6000612ffe8385612328565b935061300b838584612fe3565b61301483612363565b840190509392505050565b6000602082019050818103600083015261303a818486612ff2565b9050939250505056fea26469706673582212201cfcb5b56e13f0cd79177dc39ec893ec52639e0f105776b3efa6514d15f3e19564736f6c63430008130033",
  "immutableReferences": {},
  "source": "// SPDX-License-Identifier: MIT\npragma solidity ^0.8.19;\n\ncontract Voting {\n    address public owner;\n    bool public electionActive;\n    uint256 public electionStart;\n    uint256 public electionEnd;\n    string public pollTitle;\n    uint256 public electionId;\n\n    struct Choice {\n        string label;\n        uint256 votes;\n    }\n\n    Choice[] private choices;\n    address[] private whitelistAddresses;\n    mapping(address => bool) public isWhitelisted;\n    mapping(address => uint256) public lastVotedElection;\n    mapping(address => uint256) public lastVotedChoice;\n    mapping(address => uint256) public lastVotedAt;\n\n    event PollTitleSet(string title);\n    event ChoicesSet(uint256 count);\n    event WhitelistSet(uint256 count);\n    event WhitelistAdded(address indexed voter);\n    event WhitelistRemoved(address indexed voter);\n    event ElectionStarted(uint256 startTime);\n    event ElectionEnded(uint256 endTime);\n    event VoteCast(address indexed voter, uint256 indexed choiceIndex);\n\n    modifier onlyOwner() {\n        require(msg.sender == owner, \"Only owner\");\n        _;\n    }\n\n    modifier onlyWhileActive() {\n        require(electionActive, \"Election not active\");\n        _;\n    }\n\n    modifier onlyWhenInactive() {\n        require(!electionActive, \"Election active\");\n        _;\n    }\n\n    constructor() {\n        owner = msg.sender;\n    }\n\n    function setPollTitle(string calldata title) external onlyOwner onlyWhenInactive {\n        pollTitle = title;\n        emit PollTitleSet(title);\n    }\n\n    function setChoices(string[] calldata labels) external onlyOwner onlyWhenInactive {\n        require(labels.length > 0, \"No choices\");\n        delete choices;\n        for (uint256 i = 0; i < labels.length; i++) {\n            require(bytes(labels[i]).length > 0, \"Empty choice\");\n            choices.push(Choice({label: labels[i], votes: 0}));\n        }\n        emit ChoicesSet(labels.length);\n    }\n\n    function setWhitelist(address[] calldata voters) external onlyOwner onlyWhenInactive {\n        require(voters.length > 0, \"No voters\");\n        _clearWhitelist();\n        for (uint256 i = 0; i < voters.length; i++) {\n            address voter = voters[i];\n            require(voter != address(0), \"Invalid voter\");\n            if (!isWhitelisted[voter]) {\n                isWhitelisted[voter] = true;\n                whitelistAddresses.push(voter);\n            }\n        }\n        emit WhitelistSet(voters.length);\n    }\n\n    function addToWhitelist(address voter) external onlyOwner onlyWhenInactive {\n        require(voter != address(0), \"Invalid voter\");\n        if (!isWhitelisted[voter]) {\n            isWhitelisted[voter] = true;\n            whitelistAddresses.push(voter);\n            emit WhitelistAdded(voter);\n        }\n    }\n\n    function removeFromWhitelist(address voter) external onlyOwner onlyWhenInactive {\n        require(isWhitelisted[voter], \"Not whitelisted\");\n        isWhitelisted[voter] = false;\n        emit WhitelistRemoved(voter);\n    }\n\n    function startElection() external onlyOwner {\n        require(!electionActive, \"Election already active\");\n        require(choices.length > 0, \"No choices\");\n        require(_activeWhitelistCount() > 0, \"No voters\");\n        _resetVotes();\n        electionId += 1;\n        electionActive = true;\n        electionStart = block.timestamp;\n        electionEnd = 0;\n        emit ElectionStarted(electionStart);\n    }\n\n    function endElection() external onlyOwner {\n        require(electionActive, \"Election already ended\");\n        electionActive = false;\n        electionEnd = block.timestamp;\n        emit ElectionEnded(electionEnd);\n    }\n\n    function vote(uint256 choiceIndex) external onlyWhileActive {\n        require(choiceIndex < choices.length, \"Invalid choice\");\n        require(isWhitelisted[msg.sender], \"Not whitelisted\");\n        require(lastVotedElection[msg.sender] < electionId, \"Already voted\");\n\n        lastVotedElection[msg.sender] = electionId;\n        lastVotedChoice[msg.sender] = choiceIndex;\n        lastVotedAt[msg.sender] = block.timestamp;\n        choices[choiceIndex].votes += 1;\n\n        emit VoteCast(msg.sender, choiceIndex);\n    }\n\n    function choiceCount() external view returns (uint256) {\n        return choices.length;\n    }\n\n    function choiceInfo(uint256 choiceIndex)\n        external\n        view\n        returns (string memory label, uint256 votes)\n    {\n        require(choiceIndex < choices.length, \"Invalid choice\");\n        Choice memory choice = choices[choiceIndex];\n        return (choice.label, choice.votes);\n    }\n\n    function whitelistCount() external view returns (uint256) {\n        return whitelistAddresses.length;\n    }\n\n    function whitelistEntry(uint256 index) external view returns (address voter, bool active) {\n        require(index < whitelistAddresses.length, \"Invalid voter\");\n        address addr = whitelistAddresses[index];\n        return (addr, isWhitelisted[addr]);\n    }\n\n    function voterStatus(address voter)\n        external\n        view\n        returns (bool whitelisted, bool voted, uint256 choiceIndex, uint256 votedAt)\n    {\n        bool votedThisElection = lastVotedElection[voter] == electionId;\n        return (\n            isWhitelisted[voter],\n            votedThisElection,\n            votedThisElection ? lastVotedChoice[voter] : 0,\n            votedThisElection ? lastVotedAt[voter] : 0\n        );\n    }\n\n    function getWinner()\n        external\n        view\n        returns (uint256 winnerIndex, string memory label, uint256 votes, bool hasTie, bool hasWinner)\n    {\n        uint256 topVotes = 0;\n        uint256 topIndex = 0;\n        bool tie = false;\n        bool found = false;\n\n        for (uint256 i = 0; i < choices.length; i++) {\n            Choice memory choice = choices[i];\n            if (!found || choice.votes > topVotes) {\n                topVotes = choice.votes;\n                topIndex = i;\n                tie = false;\n                found = true;\n            } else if (choice.votes == topVotes) {\n                tie = true;\n            }\n        }\n\n        if (!found) {\n            return (0, \"\", 0, false, false);\n        }\n\n        return (topIndex, choices[topIndex].label, topVotes, tie, true);\n    }\n\n    function _resetVotes() internal {\n        for (uint256 i = 0; i < choices.length; i++) {\n            choices[i].votes = 0;\n        }\n    }\n\n    function _clearWhitelist() internal {\n        for (uint256 i = 0; i < whitelistAddresses.length; i++) {\n            address addr = whitelistAddresses[i];\n            if (isWhitelisted[addr]) {\n                isWhitelisted[addr] = false;\n            }\n        }\n        delete whitelistAddresses;\n    }\n\n    function _activeWhitelistCount() internal view returns (uint256) {\n        uint256 count = 0;\n        for (uint256 i = 0; i < whitelistAddresses.length; i++) {\n            if (isWhitelisted[whitelistAddresses[i]]) {\n                count += 1;\n            }\n        }\n        return count;\n    }\n}\n",
  "sourcePath": "/home/farout101/Documents/Github/block-chain/block-chain-assignment/truffle-dVoting/contracts/Voting.sol",
  "compiler": {
    "name": "solc",
    "version": "0.8.19+commit.7dd6d404.Emscripten.clang"
  },
  "schemaVersion": "3.4.16",
  "updatedAt": "2026-02-19T19:37:14.578Z",
  "networkType": "ethereum",
  "devdoc": {
    "kind": "dev",
    "methods": {},
    "version": 1
  },
  "userdoc": {
    "kind": "user",
    "methods": {},
    "version": 1
  }
}