{
  "contractName": "Voting",
  "abi": [
    {
      "inputs": [
        {
          "internalType": "string[]",
          "name": "initialCandidates",
          "type": "string[]"
        }
      ],
      "stateMutability": "nonpayable",
      "type": "constructor"
    },
    {
      "anonymous": false,
      "inputs": [
        {
          "indexed": true,
          "internalType": "uint256",
          "name": "candidateIndex",
          "type": "uint256"
        },
        {
          "indexed": false,
          "internalType": "string",
          "name": "name",
          "type": "string"
        }
      ],
      "name": "CandidateAdded",
      "type": "event"
    },
    {
      "anonymous": false,
      "inputs": [
        {
          "indexed": true,
          "internalType": "uint256",
          "name": "candidateIndex",
          "type": "uint256"
        }
      ],
      "name": "CandidateRemoved",
      "type": "event"
    },
    {
      "anonymous": false,
      "inputs": [
        {
          "indexed": false,
          "internalType": "uint256",
          "name": "endTime",
          "type": "uint256"
        }
      ],
      "name": "ElectionEnded",
      "type": "event"
    },
    {
      "anonymous": false,
      "inputs": [
        {
          "indexed": false,
          "internalType": "uint256",
          "name": "startTime",
          "type": "uint256"
        }
      ],
      "name": "ElectionStarted",
      "type": "event"
    },
    {
      "anonymous": false,
      "inputs": [
        {
          "indexed": true,
          "internalType": "address",
          "name": "voter",
          "type": "address"
        },
        {
          "indexed": true,
          "internalType": "uint256",
          "name": "candidateIndex",
          "type": "uint256"
        }
      ],
      "name": "VoteCast",
      "type": "event"
    },
    {
      "anonymous": false,
      "inputs": [
        {
          "indexed": false,
          "internalType": "uint256",
          "name": "count",
          "type": "uint256"
        }
      ],
      "name": "WhitelistBatch",
      "type": "event"
    },
    {
      "anonymous": false,
      "inputs": [
        {
          "indexed": true,
          "internalType": "address",
          "name": "voter",
          "type": "address"
        }
      ],
      "name": "Whitelisted",
      "type": "event"
    },
    {
      "inputs": [],
      "name": "electionActive",
      "outputs": [
        {
          "internalType": "bool",
          "name": "",
          "type": "bool"
        }
      ],
      "stateMutability": "view",
      "type": "function",
      "constant": true
    },
    {
      "inputs": [],
      "name": "electionEnd",
      "outputs": [
        {
          "internalType": "uint256",
          "name": "",
          "type": "uint256"
        }
      ],
      "stateMutability": "view",
      "type": "function",
      "constant": true
    },
    {
      "inputs": [],
      "name": "electionStart",
      "outputs": [
        {
          "internalType": "uint256",
          "name": "",
          "type": "uint256"
        }
      ],
      "stateMutability": "view",
      "type": "function",
      "constant": true
    },
    {
      "inputs": [
        {
          "internalType": "address",
          "name": "",
          "type": "address"
        }
      ],
      "name": "hasVoted",
      "outputs": [
        {
          "internalType": "bool",
          "name": "",
          "type": "bool"
        }
      ],
      "stateMutability": "view",
      "type": "function",
      "constant": true
    },
    {
      "inputs": [
        {
          "internalType": "address",
          "name": "",
          "type": "address"
        }
      ],
      "name": "isWhitelisted",
      "outputs": [
        {
          "internalType": "bool",
          "name": "",
          "type": "bool"
        }
      ],
      "stateMutability": "view",
      "type": "function",
      "constant": true
    },
    {
      "inputs": [],
      "name": "owner",
      "outputs": [
        {
          "internalType": "address",
          "name": "",
          "type": "address"
        }
      ],
      "stateMutability": "view",
      "type": "function",
      "constant": true
    },
    {
      "inputs": [
        {
          "internalType": "address",
          "name": "",
          "type": "address"
        }
      ],
      "name": "votedAt",
      "outputs": [
        {
          "internalType": "uint256",
          "name": "",
          "type": "uint256"
        }
      ],
      "stateMutability": "view",
      "type": "function",
      "constant": true
    },
    {
      "inputs": [
        {
          "internalType": "address",
          "name": "",
          "type": "address"
        }
      ],
      "name": "votedCandidate",
      "outputs": [
        {
          "internalType": "uint256",
          "name": "",
          "type": "uint256"
        }
      ],
      "stateMutability": "view",
      "type": "function",
      "constant": true
    },
    {
      "inputs": [],
      "name": "startElection",
      "outputs": [],
      "stateMutability": "nonpayable",
      "type": "function"
    },
    {
      "inputs": [],
      "name": "endElection",
      "outputs": [],
      "stateMutability": "nonpayable",
      "type": "function"
    },
    {
      "inputs": [
        {
          "internalType": "address",
          "name": "voter",
          "type": "address"
        }
      ],
      "name": "whitelist",
      "outputs": [],
      "stateMutability": "nonpayable",
      "type": "function"
    },
    {
      "inputs": [
        {
          "internalType": "address[]",
          "name": "voters",
          "type": "address[]"
        }
      ],
      "name": "whitelistBatch",
      "outputs": [],
      "stateMutability": "nonpayable",
      "type": "function"
    },
    {
      "inputs": [
        {
          "internalType": "string",
          "name": "name",
          "type": "string"
        }
      ],
      "name": "addCandidate",
      "outputs": [],
      "stateMutability": "nonpayable",
      "type": "function"
    },
    {
      "inputs": [
        {
          "internalType": "uint256",
          "name": "candidateIndex",
          "type": "uint256"
        }
      ],
      "name": "removeCandidate",
      "outputs": [],
      "stateMutability": "nonpayable",
      "type": "function"
    },
    {
      "inputs": [
        {
          "internalType": "uint256",
          "name": "candidateIndex",
          "type": "uint256"
        }
      ],
      "name": "vote",
      "outputs": [],
      "stateMutability": "nonpayable",
      "type": "function"
    },
    {
      "inputs": [],
      "name": "candidateCount",
      "outputs": [
        {
          "internalType": "uint256",
          "name": "",
          "type": "uint256"
        }
      ],
      "stateMutability": "view",
      "type": "function",
      "constant": true
    },
    {
      "inputs": [],
      "name": "activeCandidateCount",
      "outputs": [
        {
          "internalType": "uint256",
          "name": "",
          "type": "uint256"
        }
      ],
      "stateMutability": "view",
      "type": "function",
      "constant": true
    },
    {
      "inputs": [
        {
          "internalType": "uint256",
          "name": "candidateIndex",
          "type": "uint256"
        }
      ],
      "name": "candidateInfo",
      "outputs": [
        {
          "internalType": "string",
          "name": "name",
          "type": "string"
        },
        {
          "internalType": "uint256",
          "name": "votes",
          "type": "uint256"
        },
        {
          "internalType": "bool",
          "name": "active",
          "type": "bool"
        }
      ],
      "stateMutability": "view",
      "type": "function",
      "constant": true
    },
    {
      "inputs": [
        {
          "internalType": "address",
          "name": "voter",
          "type": "address"
        }
      ],
      "name": "voterStatus",
      "outputs": [
        {
          "internalType": "bool",
          "name": "whitelisted",
          "type": "bool"
        },
        {
          "internalType": "bool",
          "name": "voted",
          "type": "bool"
        },
        {
          "internalType": "uint256",
          "name": "candidateIndex",
          "type": "uint256"
        },
        {
          "internalType": "uint256",
          "name": "timestamp",
          "type": "uint256"
        }
      ],
      "stateMutability": "view",
      "type": "function",
      "constant": true
    },
    {
      "inputs": [],
      "name": "getWinner",
      "outputs": [
        {
          "internalType": "uint256",
          "name": "winnerIndex",
          "type": "uint256"
        },
        {
          "internalType": "string",
          "name": "name",
          "type": "string"
        },
        {
          "internalType": "uint256",
          "name": "votes",
          "type": "uint256"
        },
        {
          "internalType": "bool",
          "name": "hasTie",
          "type": "bool"
        },
        {
          "internalType": "bool",
          "name": "hasWinner",
          "type": "bool"
        }
      ],
      "stateMutability": "view",
      "type": "function",
      "constant": true
    }
  ],
  "bytecode": "0x60806040523480156200001157600080fd5b5060405162002f1838038062002f18833981810160405281019062000037919062000484565b336000806101000a81548173ffffffffffffffffffffffffffffffffffffffff021916908373ffffffffffffffffffffffffffffffffffffffff16021790555060005b8151811015620000c857620000b28282815181106200009e576200009d620004d5565b5b6020026020010151620000d060201b60201c565b8080620000bf906200053d565b9150506200007a565b5050620009d5565b600081511162000117576040517f08c379a00000000000000000000000000000000000000000000000000000000081526004016200010e90620005eb565b60405180910390fd5b600360405180606001604052808381526020016000815260200160011515815250908060018154018082558091505060019003906000526020600020906003020160009091909190915060008201518160000190816200017891906200084e565b506020820151816001015560408201518160020160006101000a81548160ff02191690831515021790555050506001600380549050620001b9919062000935565b7fe83b2a43e7e82d975c8a0a6d2f045153c869e111136a34d1889ab7b598e396a382604051620001ea9190620009b1565b60405180910390a250565b6000604051905090565b600080fd5b600080fd5b600080fd5b6000601f19601f8301169050919050565b7f4e487b7100000000000000000000000000000000000000000000000000000000600052604160045260246000fd5b62000259826200020e565b810181811067ffffffffffffffff821117156200027b576200027a6200021f565b5b80604052505050565b600062000290620001f5565b90506200029e82826200024e565b919050565b600067ffffffffffffffff821115620002c157620002c06200021f565b5b602082029050602081019050919050565b600080fd5b600080fd5b600067ffffffffffffffff821115620002fa57620002f96200021f565b5b62000305826200020e565b9050602081019050919050565b60005b838110156200033257808201518184015260208101905062000315565b60008484015250505050565b6000620003556200034f84620002dc565b62000284565b905082815260208101848484011115620003745762000373620002d7565b5b6200038184828562000312565b509392505050565b600082601f830112620003a157620003a062000209565b5b8151620003b38482602086016200033e565b91505092915050565b6000620003d3620003cd84620002a3565b62000284565b90508083825260208201905060208402830185811115620003f957620003f8620002d2565b5b835b818110156200044757805167ffffffffffffffff81111562000422576200042162000209565b5b80860162000431898262000389565b85526020850194505050602081019050620003fb565b5050509392505050565b600082601f83011262000469576200046862000209565b5b81516200047b848260208601620003bc565b91505092915050565b6000602082840312156200049d576200049c620001ff565b5b600082015167ffffffffffffffff811115620004be57620004bd62000204565b5b620004cc8482850162000451565b91505092915050565b7f4e487b7100000000000000000000000000000000000000000000000000000000600052603260045260246000fd5b7f4e487b7100000000000000000000000000000000000000000000000000000000600052601160045260246000fd5b6000819050919050565b60006200054a8262000533565b91507fffffffffffffffffffffffffffffffffffffffffffffffffffffffffffffffff82036200057f576200057e62000504565b5b600182019050919050565b600082825260208201905092915050565b7f456d707479206e616d6500000000000000000000000000000000000000000000600082015250565b6000620005d3600a836200058a565b9150620005e0826200059b565b602082019050919050565b600060208201905081810360008301526200060681620005c4565b9050919050565b600081519050919050565b7f4e487b7100000000000000000000000000000000000000000000000000000000600052602260045260246000fd5b600060028204905060018216806200066057607f821691505b60208210810362000676576200067562000618565b5b50919050565b60008190508160005260206000209050919050565b60006020601f8301049050919050565b600082821b905092915050565b600060088302620006e07fffffffffffffffffffffffffffffffffffffffffffffffffffffffffffffffff82620006a1565b620006ec8683620006a1565b95508019841693508086168417925050509392505050565b6000819050919050565b60006200072f62000729620007238462000533565b62000704565b62000533565b9050919050565b6000819050919050565b6200074b836200070e565b620007636200075a8262000736565b848454620006ae565b825550505050565b600090565b6200077a6200076b565b6200078781848462000740565b505050565b5b81811015620007af57620007a360008262000770565b6001810190506200078d565b5050565b601f821115620007fe57620007c8816200067c565b620007d38462000691565b81016020851015620007e3578190505b620007fb620007f28562000691565b8301826200078c565b50505b505050565b600082821c905092915050565b6000620008236000198460080262000803565b1980831691505092915050565b60006200083e838362000810565b9150826002028217905092915050565b62000859826200060d565b67ffffffffffffffff8111156200087557620008746200021f565b5b62000881825462000647565b6200088e828285620007b3565b600060209050601f831160018114620008c65760008415620008b1578287015190505b620008bd858262000830565b8655506200092d565b601f198416620008d6866200067c565b60005b828110156200090057848901518255600182019150602085019450602081019050620008d9565b868310156200092057848901516200091c601f89168262000810565b8355505b6001600288020188555050505b505050505050565b6000620009428262000533565b91506200094f8362000533565b92508282039050818111156200096a576200096962000504565b5b92915050565b60006200097d826200060d565b6200098981856200058a565b93506200099b81856020860162000312565b620009a6816200020e565b840191505092915050565b60006020820190508181036000830152620009cd818462000970565b905092915050565b61253380620009e56000396000f3fe608060405234801561001057600080fd5b506004361061012c5760003560e01c806366f516ec116100ad578063a9a981a311610071578063a9a981a314610326578063c1211c8614610344578063ce7ea16114610362578063d531654414610380578063eaa53523146103b05761012c565b806366f516ec1461027a5780637ed628bb146102ac5780638da5cb5b146102ca5780638e7ea5b2146102e85780639b19251a1461030a5761012c565b80633af32abf116100f45780633af32abf146101e7578063462e91ec14610217578063576cc4f21461023357806359f784681461026657806362d73eb8146102705761012c565b80630121b93f1461013157806309e9d7e21461014d57806309eef43e146101695780632fc74f481461019957806330de8c15146101b7575b600080fd5b61014b600480360381019061014691906117ac565b6103cc565b005b610167600480360381019061016291906117ac565b610751565b005b610183600480360381019061017e9190611837565b610906565b604051610190919061187f565b60405180910390f35b6101a1610926565b6040516101ae91906118a9565b60405180910390f35b6101d160048036038101906101cc9190611837565b6109a0565b6040516101de91906118a9565b60405180910390f35b61020160048036038101906101fc9190611837565b6109b8565b60405161020e919061187f565b60405180910390f35b610231600480360381019061022c9190611929565b6109d8565b005b61024d60048036038101906102489190611837565b610ab7565b60405161025d9493929190611976565b60405180910390f35b61026e610be6565b005b610278610d1f565b005b610294600480360381019061028f91906117ac565b610e62565b6040516102a393929190611a4b565b60405180910390f35b6102b4610fb3565b6040516102c1919061187f565b60405180910390f35b6102d2610fc6565b6040516102df9190611a98565b60405180910390f35b6102f0610fea565b604051610301959493929190611ab3565b60405180910390f35b610324600480360381019061031f9190611837565b611253565b005b61032e6113ee565b60405161033b91906118a9565b60405180910390f35b61034c6113fb565b60405161035991906118a9565b60405180910390f35b61036a611401565b60405161037791906118a9565b60405180910390f35b61039a60048036038101906103959190611837565b611407565b6040516103a791906118a9565b60405180910390f35b6103ca60048036038101906103c59190611b63565b61141f565b005b600060149054906101000a900460ff1661041b576040517f08c379a000000000000000000000000000000000000000000000000000000000815260040161041290611bfc565b60405180910390fd5b600460003373ffffffffffffffffffffffffffffffffffffffff1673ffffffffffffffffffffffffffffffffffffffff16815260200190815260200160002060009054906101000a900460ff166104a7576040517f08c379a000000000000000000000000000000000000000000000000000000000815260040161049e90611c68565b60405180910390fd5b600560003373ffffffffffffffffffffffffffffffffffffffff1673ffffffffffffffffffffffffffffffffffffffff16815260200190815260200160002060009054906101000a900460ff1615610534576040517f08c379a000000000000000000000000000000000000000000000000000000000815260040161052b90611cd4565b60405180910390fd5b600380549050811061057b576040517f08c379a000000000000000000000000000000000000000000000000000000000815260040161057290611d40565b60405180910390fd5b6003818154811061058f5761058e611d60565b5b906000526020600020906003020160020160009054906101000a900460ff166105ed576040517f08c379a00000000000000000000000000000000000000000000000000000000081526004016105e490611ddb565b60405180910390fd5b6001600560003373ffffffffffffffffffffffffffffffffffffffff1673ffffffffffffffffffffffffffffffffffffffff16815260200190815260200160002060006101000a81548160ff02191690831515021790555080600660003373ffffffffffffffffffffffffffffffffffffffff1673ffffffffffffffffffffffffffffffffffffffff1681526020019081526020016000208190555042600760003373ffffffffffffffffffffffffffffffffffffffff1673ffffffffffffffffffffffffffffffffffffffff168152602001908152602001600020819055506001600382815481106106e3576106e2611d60565b5b906000526020600020906003020160010160008282546107039190611e2a565b92505081905550803373ffffffffffffffffffffffffffffffffffffffff167fa36cc2bebb74db33e9f88110a07ef56e1b31b24b4c4f51b54b1664266e29f45b60405160405180910390a350565b60008054906101000a900473ffffffffffffffffffffffffffffffffffffffff1673ffffffffffffffffffffffffffffffffffffffff163373ffffffffffffffffffffffffffffffffffffffff16146107df576040517f08c379a00000000000000000000000000000000000000000000000000000000081526004016107d690611eaa565b60405180910390fd5b6003805490508110610826576040517f08c379a000000000000000000000000000000000000000000000000000000000815260040161081d90611d40565b60405180910390fd5b6003818154811061083a57610839611d60565b5b906000526020600020906003020160020160009054906101000a900460ff16610898576040517f08c379a000000000000000000000000000000000000000000000000000000000815260040161088f90611f16565b60405180910390fd5b6000600382815481106108ae576108ad611d60565b5b906000526020600020906003020160020160006101000a81548160ff021916908315150217905550807f294c5a9bc8a39e6e06502bc8da429980f6c7b0990d75b682c12cb8705e3ace8560405160405180910390a250565b60056020528060005260406000206000915054906101000a900460ff1681565b6000806000905060005b600380549050811015610998576003818154811061095157610950611d60565b5b906000526020600020906003020160020160009054906101000a900460ff1615610985576001826109829190611e2a565b91505b808061099090611f36565b915050610930565b508091505090565b60076020528060005260406000206000915090505481565b60046020528060005260406000206000915054906101000a900460ff1681565b60008054906101000a900473ffffffffffffffffffffffffffffffffffffffff1673ffffffffffffffffffffffffffffffffffffffff163373ffffffffffffffffffffffffffffffffffffffff1614610a66576040517f08c379a0000000000000000000000000000000000000000000000000000000008152600401610a5d90611eaa565b60405180910390fd5b610ab382828080601f016020809104026020016040519081016040528093929190818152602001838380828437600081840152601f19601f82011690508083019250505050505050611650565b5050565b600080600080600460008673ffffffffffffffffffffffffffffffffffffffff1673ffffffffffffffffffffffffffffffffffffffff16815260200190815260200160002060009054906101000a900460ff16600560008773ffffffffffffffffffffffffffffffffffffffff1673ffffffffffffffffffffffffffffffffffffffff16815260200190815260200160002060009054906101000a900460ff16600660008873ffffffffffffffffffffffffffffffffffffffff1673ffffffffffffffffffffffffffffffffffffffff16815260200190815260200160002054600760008973ffffffffffffffffffffffffffffffffffffffff1673ffffffffffffffffffffffffffffffffffffffff1681526020019081526020016000205493509350935093509193509193565b60008054906101000a900473ffffffffffffffffffffffffffffffffffffffff1673ffffffffffffffffffffffffffffffffffffffff163373ffffffffffffffffffffffffffffffffffffffff1614610c74576040517f08c379a0000000000000000000000000000000000000000000000000000000008152600401610c6b90611eaa565b60405180910390fd5b600060149054906101000a900460ff16610cc3576040517f08c379a0000000000000000000000000000000000000000000000000000000008152600401610cba90611fca565b60405180910390fd5b60008060146101000a81548160ff021916908315150217905550426002819055507f562cd572b2ba3b666cd989fc4ca98419ec81e75f04528df9d9d76fdb7807ee71600254604051610d1591906118a9565b60405180910390a1565b60008054906101000a900473ffffffffffffffffffffffffffffffffffffffff1673ffffffffffffffffffffffffffffffffffffffff163373ffffffffffffffffffffffffffffffffffffffff1614610dad576040517f08c379a0000000000000000000000000000000000000000000000000000000008152600401610da490611eaa565b60405180910390fd5b600060149054906101000a900460ff1615610dfd576040517f08c379a0000000000000000000000000000000000000000000000000000000008152600401610df490612036565b60405180910390fd5b6001600060146101000a81548160ff0219169083151502179055504260018190555060006002819055507f159eee87222a0489c529f2153c26ad65d718f2cc33ebaa8d399d1dd5b39facaa600154604051610e5891906118a9565b60405180910390a1565b60606000806003805490508410610eae576040517f08c379a0000000000000000000000000000000000000000000000000000000008152600401610ea590611d40565b60405180910390fd5b600060038581548110610ec457610ec3611d60565b5b9060005260206000209060030201604051806060016040529081600082018054610eed90612085565b80601f0160208091040260200160405190810160405280929190818152602001828054610f1990612085565b8015610f665780601f10610f3b57610100808354040283529160200191610f66565b820191906000526020600020905b815481529060010190602001808311610f4957829003601f168201915b50505050508152602001600182015481526020016002820160009054906101000a900460ff1615151515815250509050806000015181602001518260400151935093509350509193909250565b600060149054906101000a900460ff1681565b60008054906101000a900473ffffffffffffffffffffffffffffffffffffffff1681565b60006060600080600080600090506000806000805b6003805490508110156111555760006003828154811061102257611021611d60565b5b906000526020600020906003020160405180606001604052908160008201805461104b90612085565b80601f016020809104026020016040519081016040528092919081815260200182805461107790612085565b80156110c45780601f10611099576101008083540402835291602001916110c4565b820191906000526020600020905b8154815290600101906020018083116110a757829003601f168201915b50505050508152602001600182015481526020016002820160009054906101000a900460ff161515151581525050905080604001516111035750611142565b8215806111135750858160200151115b1561112f57806020015195508194506000935060019250611140565b8581602001510361113f57600193505b5b505b808061114d90611f36565b915050610fff565b50806111875760008060008060405180602001604052806000815250929190985098509850985098505050505061124c565b826003848154811061119c5761119b611d60565b5b9060005260206000209060030201600001858460018380546111bd90612085565b80601f01602080910402602001604051908101604052809291908181526020018280546111e990612085565b80156112365780601f1061120b57610100808354040283529160200191611236565b820191906000526020600020905b81548152906001019060200180831161121957829003601f168201915b5050505050935098509850985098509850505050505b9091929394565b60008054906101000a900473ffffffffffffffffffffffffffffffffffffffff1673ffffffffffffffffffffffffffffffffffffffff163373ffffffffffffffffffffffffffffffffffffffff16146112e1576040517f08c379a00000000000000000000000000000000000000000000000000000000081526004016112d890611eaa565b60405180910390fd5b600073ffffffffffffffffffffffffffffffffffffffff168173ffffffffffffffffffffffffffffffffffffffff1603611350576040517f08c379a000000000000000000000000000000000000000000000000000000000815260040161134790612102565b60405180910390fd5b6001600460008373ffffffffffffffffffffffffffffffffffffffff1673ffffffffffffffffffffffffffffffffffffffff16815260200190815260200160002060006101000a81548160ff0219169083151502179055508073ffffffffffffffffffffffffffffffffffffffff167faab7954e9d246b167ef88aeddad35209ca2489d95a8aeb59e288d9b19fae5a5460405160405180910390a250565b6000600380549050905090565b60015481565b60025481565b60066020528060005260406000206000915090505481565b60008054906101000a900473ffffffffffffffffffffffffffffffffffffffff1673ffffffffffffffffffffffffffffffffffffffff163373ffffffffffffffffffffffffffffffffffffffff16146114ad576040517f08c379a00000000000000000000000000000000000000000000000000000000081526004016114a490611eaa565b60405180910390fd5b600082829050116114f3576040517f08c379a00000000000000000000000000000000000000000000000000000000081526004016114ea9061216e565b60405180910390fd5b60005b8282905081101561161157600083838381811061151657611515611d60565b5b905060200201602081019061152b9190611837565b9050600073ffffffffffffffffffffffffffffffffffffffff168173ffffffffffffffffffffffffffffffffffffffff16146115fd576001600460008373ffffffffffffffffffffffffffffffffffffffff1673ffffffffffffffffffffffffffffffffffffffff16815260200190815260200160002060006101000a81548160ff0219169083151502179055508073ffffffffffffffffffffffffffffffffffffffff167faab7954e9d246b167ef88aeddad35209ca2489d95a8aeb59e288d9b19fae5a5460405160405180910390a25b50808061160990611f36565b9150506114f6565b507f597bfa3f64675387d8601ef852b8f93c2a6c315ea7ddf13ec159811c8de02cc08282905060405161164491906118a9565b60405180910390a15050565b6000815111611694576040517f08c379a000000000000000000000000000000000000000000000000000000000815260040161168b906121da565b60405180910390fd5b600360405180606001604052808381526020016000815260200160011515815250908060018154018082558091505060019003906000526020600020906003020160009091909190915060008201518160000190816116f391906123d5565b506020820151816001015560408201518160020160006101000a81548160ff0219169083151502179055505050600160038054905061173291906124a7565b7fe83b2a43e7e82d975c8a0a6d2f045153c869e111136a34d1889ab7b598e396a38260405161176191906124db565b60405180910390a250565b600080fd5b600080fd5b6000819050919050565b61178981611776565b811461179457600080fd5b50565b6000813590506117a681611780565b92915050565b6000602082840312156117c2576117c161176c565b5b60006117d084828501611797565b91505092915050565b600073ffffffffffffffffffffffffffffffffffffffff82169050919050565b6000611804826117d9565b9050919050565b611814816117f9565b811461181f57600080fd5b50565b6000813590506118318161180b565b92915050565b60006020828403121561184d5761184c61176c565b5b600061185b84828501611822565b91505092915050565b60008115159050919050565b61187981611864565b82525050565b60006020820190506118946000830184611870565b92915050565b6118a381611776565b82525050565b60006020820190506118be600083018461189a565b92915050565b600080fd5b600080fd5b600080fd5b60008083601f8401126118e9576118e86118c4565b5b8235905067ffffffffffffffff811115611906576119056118c9565b5b602083019150836001820283011115611922576119216118ce565b5b9250929050565b600080602083850312156119405761193f61176c565b5b600083013567ffffffffffffffff81111561195e5761195d611771565b5b61196a858286016118d3565b92509250509250929050565b600060808201905061198b6000830187611870565b6119986020830186611870565b6119a5604083018561189a565b6119b2606083018461189a565b95945050505050565b600081519050919050565b600082825260208201905092915050565b60005b838110156119f55780820151818401526020810190506119da565b60008484015250505050565b6000601f19601f8301169050919050565b6000611a1d826119bb565b611a2781856119c6565b9350611a378185602086016119d7565b611a4081611a01565b840191505092915050565b60006060820190508181036000830152611a658186611a12565b9050611a74602083018561189a565b611a816040830184611870565b949350505050565b611a92816117f9565b82525050565b6000602082019050611aad6000830184611a89565b92915050565b600060a082019050611ac8600083018861189a565b8181036020830152611ada8187611a12565b9050611ae9604083018661189a565b611af66060830185611870565b611b036080830184611870565b9695505050505050565b60008083601f840112611b2357611b226118c4565b5b8235905067ffffffffffffffff811115611b4057611b3f6118c9565b5b602083019150836020820283011115611b5c57611b5b6118ce565b5b9250929050565b60008060208385031215611b7a57611b7961176c565b5b600083013567ffffffffffffffff811115611b9857611b97611771565b5b611ba485828601611b0d565b92509250509250929050565b7f456c656374696f6e206e6f742061637469766500000000000000000000000000600082015250565b6000611be66013836119c6565b9150611bf182611bb0565b602082019050919050565b60006020820190508181036000830152611c1581611bd9565b9050919050565b7f4e6f742077686974656c69737465640000000000000000000000000000000000600082015250565b6000611c52600f836119c6565b9150611c5d82611c1c565b602082019050919050565b60006020820190508181036000830152611c8181611c45565b9050919050565b7f416c726561647920766f74656400000000000000000000000000000000000000600082015250565b6000611cbe600d836119c6565b9150611cc982611c88565b602082019050919050565b60006020820190508181036000830152611ced81611cb1565b9050919050565b7f496e76616c69642063616e646964617465000000000000000000000000000000600082015250565b6000611d2a6011836119c6565b9150611d3582611cf4565b602082019050919050565b60006020820190508181036000830152611d5981611d1d565b9050919050565b7f4e487b7100000000000000000000000000000000000000000000000000000000600052603260045260246000fd5b7f43616e64696461746520696e6163746976650000000000000000000000000000600082015250565b6000611dc56012836119c6565b9150611dd082611d8f565b602082019050919050565b60006020820190508181036000830152611df481611db8565b9050919050565b7f4e487b7100000000000000000000000000000000000000000000000000000000600052601160045260246000fd5b6000611e3582611776565b9150611e4083611776565b9250828201905080821115611e5857611e57611dfb565b5b92915050565b7f4f6e6c79206f776e657200000000000000000000000000000000000000000000600082015250565b6000611e94600a836119c6565b9150611e9f82611e5e565b602082019050919050565b60006020820190508181036000830152611ec381611e87565b9050919050565b7f416c72656164792072656d6f7665640000000000000000000000000000000000600082015250565b6000611f00600f836119c6565b9150611f0b82611eca565b602082019050919050565b60006020820190508181036000830152611f2f81611ef3565b9050919050565b6000611f4182611776565b91507fffffffffffffffffffffffffffffffffffffffffffffffffffffffffffffffff8203611f7357611f72611dfb565b5b600182019050919050565b7f456c656374696f6e20616c726561647920656e64656400000000000000000000600082015250565b6000611fb46016836119c6565b9150611fbf82611f7e565b602082019050919050565b60006020820190508181036000830152611fe381611fa7565b9050919050565b7f456c656374696f6e20616c726561647920616374697665000000000000000000600082015250565b60006120206017836119c6565b915061202b82611fea565b602082019050919050565b6000602082019050818103600083015261204f81612013565b9050919050565b7f4e487b7100000000000000000000000000000000000000000000000000000000600052602260045260246000fd5b6000600282049050600182168061209d57607f821691505b6020821081036120b0576120af612056565b5b50919050565b7f496e76616c696420616464726573730000000000000000000000000000000000600082015250565b60006120ec600f836119c6565b91506120f7826120b6565b602082019050919050565b6000602082019050818103600083015261211b816120df565b9050919050565b7f456d707479206c69737400000000000000000000000000000000000000000000600082015250565b6000612158600a836119c6565b915061216382612122565b602082019050919050565b600060208201905081810360008301526121878161214b565b9050919050565b7f456d707479206e616d6500000000000000000000000000000000000000000000600082015250565b60006121c4600a836119c6565b91506121cf8261218e565b602082019050919050565b600060208201905081810360008301526121f3816121b7565b9050919050565b7f4e487b7100000000000000000000000000000000000000000000000000000000600052604160045260246000fd5b60008190508160005260206000209050919050565b60006020601f8301049050919050565b600082821b905092915050565b60006008830261228b7fffffffffffffffffffffffffffffffffffffffffffffffffffffffffffffffff8261224e565b612295868361224e565b95508019841693508086168417925050509392505050565b6000819050919050565b60006122d26122cd6122c884611776565b6122ad565b611776565b9050919050565b6000819050919050565b6122ec836122b7565b6123006122f8826122d9565b84845461225b565b825550505050565b600090565b612315612308565b6123208184846122e3565b505050565b5b818110156123445761233960008261230d565b600181019050612326565b5050565b601f8211156123895761235a81612229565b6123638461223e565b81016020851015612372578190505b61238661237e8561223e565b830182612325565b50505b505050565b600082821c905092915050565b60006123ac6000198460080261238e565b1980831691505092915050565b60006123c5838361239b565b9150826002028217905092915050565b6123de826119bb565b67ffffffffffffffff8111156123f7576123f66121fa565b5b6124018254612085565b61240c828285612348565b600060209050601f83116001811461243f576000841561242d578287015190505b61243785826123b9565b86555061249f565b601f19841661244d86612229565b60005b8281101561247557848901518255600182019150602085019450602081019050612450565b86831015612492578489015161248e601f89168261239b565b8355505b6001600288020188555050505b505050505050565b60006124b282611776565b91506124bd83611776565b92508282039050818111156124d5576124d4611dfb565b5b92915050565b600060208201905081810360008301526124f58184611a12565b90509291505056fea2646970667358221220eec8ee96d66320cf495e750cb6c8f66dfd4785ecb9288732d7c6a5935ccd83c964736f6c63430008130033",
  "immutableReferences": {},
  "source": "// SPDX-License-Identifier: MIT\npragma solidity ^0.8.19;\n\ncontract Voting {\n    address public owner;\n    bool public electionActive;\n    uint256 public electionStart;\n    uint256 public electionEnd;\n\n    struct Candidate {\n        string name;\n        uint256 votes;\n        bool active;\n    }\n\n    Candidate[] private candidates;\n\n    mapping(address => bool) public isWhitelisted;\n    mapping(address => bool) public hasVoted;\n    mapping(address => uint256) public votedCandidate;\n    mapping(address => uint256) public votedAt;\n\n    event Whitelisted(address indexed voter);\n    event WhitelistBatch(uint256 count);\n    event CandidateAdded(uint256 indexed candidateIndex, string name);\n    event CandidateRemoved(uint256 indexed candidateIndex);\n    event ElectionStarted(uint256 startTime);\n    event ElectionEnded(uint256 endTime);\n    event VoteCast(address indexed voter, uint256 indexed candidateIndex);\n\n    modifier onlyOwner() {\n        require(msg.sender == owner, \"Only owner\");\n        _;\n    }\n\n    modifier onlyWhileActive() {\n        require(electionActive, \"Election not active\");\n        _;\n    }\n\n    constructor(string[] memory initialCandidates) {\n        owner = msg.sender;\n        for (uint256 i = 0; i < initialCandidates.length; i++) {\n            _addCandidate(initialCandidates[i]);\n        }\n    }\n\n    function startElection() external onlyOwner {\n        require(!electionActive, \"Election already active\");\n        electionActive = true;\n        electionStart = block.timestamp;\n        electionEnd = 0;\n        emit ElectionStarted(electionStart);\n    }\n\n    function endElection() external onlyOwner {\n        require(electionActive, \"Election already ended\");\n        electionActive = false;\n        electionEnd = block.timestamp;\n        emit ElectionEnded(electionEnd);\n    }\n\n    function whitelist(address voter) public onlyOwner {\n        require(voter != address(0), \"Invalid address\");\n        isWhitelisted[voter] = true;\n        emit Whitelisted(voter);\n    }\n\n    function whitelistBatch(address[] calldata voters) external onlyOwner {\n        require(voters.length > 0, \"Empty list\");\n        for (uint256 i = 0; i < voters.length; i++) {\n            address voter = voters[i];\n            if (voter != address(0)) {\n                isWhitelisted[voter] = true;\n                emit Whitelisted(voter);\n            }\n        }\n        emit WhitelistBatch(voters.length);\n    }\n\n    function addCandidate(string calldata name) external onlyOwner {\n        _addCandidate(name);\n    }\n\n    function removeCandidate(uint256 candidateIndex) external onlyOwner {\n        require(candidateIndex < candidates.length, \"Invalid candidate\");\n        require(candidates[candidateIndex].active, \"Already removed\");\n        candidates[candidateIndex].active = false;\n        emit CandidateRemoved(candidateIndex);\n    }\n\n    function vote(uint256 candidateIndex) external onlyWhileActive {\n        require(isWhitelisted[msg.sender], \"Not whitelisted\");\n        require(!hasVoted[msg.sender], \"Already voted\");\n        require(candidateIndex < candidates.length, \"Invalid candidate\");\n        require(candidates[candidateIndex].active, \"Candidate inactive\");\n\n        hasVoted[msg.sender] = true;\n        votedCandidate[msg.sender] = candidateIndex;\n        votedAt[msg.sender] = block.timestamp;\n        candidates[candidateIndex].votes += 1;\n\n        emit VoteCast(msg.sender, candidateIndex);\n    }\n\n    function candidateCount() external view returns (uint256) {\n        return candidates.length;\n    }\n\n    function activeCandidateCount() external view returns (uint256) {\n        uint256 count = 0;\n        for (uint256 i = 0; i < candidates.length; i++) {\n            if (candidates[i].active) {\n                count += 1;\n            }\n        }\n        return count;\n    }\n\n    function candidateInfo(uint256 candidateIndex)\n        external\n        view\n        returns (string memory name, uint256 votes, bool active)\n    {\n        require(candidateIndex < candidates.length, \"Invalid candidate\");\n        Candidate memory candidate = candidates[candidateIndex];\n        return (candidate.name, candidate.votes, candidate.active);\n    }\n\n    function voterStatus(address voter)\n        external\n        view\n        returns (bool whitelisted, bool voted, uint256 candidateIndex, uint256 timestamp)\n    {\n        return (\n            isWhitelisted[voter],\n            hasVoted[voter],\n            votedCandidate[voter],\n            votedAt[voter]\n        );\n    }\n\n    function getWinner()\n        external\n        view\n        returns (uint256 winnerIndex, string memory name, uint256 votes, bool hasTie, bool hasWinner)\n    {\n        uint256 topVotes = 0;\n        uint256 topIndex = 0;\n        bool tie = false;\n        bool found = false;\n\n        for (uint256 i = 0; i < candidates.length; i++) {\n            Candidate memory candidate = candidates[i];\n            if (!candidate.active) {\n                continue;\n            }\n            if (!found || candidate.votes > topVotes) {\n                topVotes = candidate.votes;\n                topIndex = i;\n                tie = false;\n                found = true;\n            } else if (candidate.votes == topVotes) {\n                tie = true;\n            }\n        }\n\n        if (!found) {\n            return (0, \"\", 0, false, false);\n        }\n\n        return (topIndex, candidates[topIndex].name, topVotes, tie, true);\n    }\n\n    function _addCandidate(string memory name) internal {\n        require(bytes(name).length > 0, \"Empty name\");\n        candidates.push(Candidate({name: name, votes: 0, active: true}));\n        emit CandidateAdded(candidates.length - 1, name);\n    }\n}\n",
  "sourcePath": "/home/farout101/Documents/Github/block-chain/block-chain-assignment/truffle-dVoting/contracts/Voting.sol",
  "compiler": {
    "name": "solc",
    "version": "0.8.19+commit.7dd6d404.Emscripten.clang"
  },
  "schemaVersion": "3.4.16",
  "updatedAt": "2026-02-19T15:29:46.732Z",
  "networkType": "ethereum",
  "devdoc": {
    "kind": "dev",
    "methods": {},
    "version": 1
  },
  "userdoc": {
    "kind": "user",
    "methods": {},
    "version": 1
  }
}